:10000000022F3602008653EFFE323202001253EF07
:0A001000FD323202000A53EFFB320A
:07001B000236A553EFFE328F
:1000230002334A90038CE0FCA3E0FDED1D70011C3C
:1000330014AA044C70F5EF1F70011E144E70E422D5
:1000430002386DC2A3123904D2A302390BC2AF2204
:0700530002000653EFFD322D
:06005B0002000ED2AF22EC
:1000630002001E90007DEFF0AA03A9051239541275
:0F0073003800AF01123804AF0212380402004601
:06008300020016C2CA32A1
:03008B0002388FA9
:030093000238B17F
:03009B000200560A
:1000A300023558020467E86480F8E933E8336011E5
:1000B3000460F0ED33EC337009E8FCE9FDEAFEEB94
:1000C300FF220460DED3EB9FEA9EE99DE8C2E78C42
:1000D300F0C2F795F0400CE8CCF8E9CDF9EACEFA96
:1000E300EBCFFB12043285D0F05804700320D5B354
:1000F300E80470075002B2D502047192D5EC046093
:10010300F7E4CCC0E0C398F8603B94186008400D56
:10011300D0E0FB020449E4FBFAC9FC8028E830E4A0
:1001230006E4C9FBE4CAFCE830E305E4C9CACBFC36
:10013300E854076010F8C3E913F9EA13FAEB13FB69
:10014300EC13FCD8F130F52FC3E49CFCEF9BFFEEDE
:100153009AFEED99FDD0E0FBEF4E4D4C701222DB81
:100163000302046EEC2CFCEF33FFEE33FEED33FDA4
:10017300ED30E7EB020449EF2BFFEE3AFEED39FDDC
:10018300D0E0FB50130BBB0003020471ED13FDEE33
:1001930013FEEF13FFEC13FC020449EC4D6011E86E
:1001A300497017ED33EC3304600DE4FCFFFEFD22D0
:1001B300E933E8330470F802046712043258046028
:1001C30009E4CC2481500628500902047128400315
:1001D30002046EC0E0EB4A7044B98006D0E0FB0233
:1001E300045DEF4E701CBD8008EBFFEAFEE9FD8065
:1001F300EBE98DF0A4FEE5F0020287E9CDF9EAFE12
:10020300EBFFEF89F0A4FCE5F0CE89F0A42EFFE428
:1002130035F0CD89F0A42DFEE435F08067EF4E7004
:1002230005BD80D780C3EF8BF0A4ACF0EE8BF0A4B8
:100233002CFCE435F0F8EF8AF0A42CE5F038FCE46C
:1002430033CB8DF0A42CFCE5F03BF8EE8AF0A42C24
:10025300FCE5F038F8E433CF89F0A42CFCE5F03862
:10026300CF3400CE89F0A42FFFE5F03EFEE433C97E
:100273008DF0A42EFEE5F039CD8AF0A42FFFE5F032
:100283003EFEE43DFD33D0E0FB50070BBB000F0205
:100293000471EC2CFCEF33FFEE33FEED33FD02046F
:1002A30049020471EC5D046005E85904700302041B
:1002B30067120432580460F6EC4860F2EC7004FDF7
:1002C300FEFF22C860DB2481C85009C39860025036
:1002D3000602046E9850CAF582E9294B4A7005ABB1
:1002E3008202045D75F0007C1A7880C3EF9BEE9A5E
:1002F300ED99400DC3EF9BFFEE9AFEED99FDE842A9
:10030300F0DC23ACF0D0E0FFD0E0FED0E0FDAB8228
:1003130020E7101BEB60BAEC2CFCEF33FFEE33FE4F
:10032300ED33FD020449E803F830E705C0F075F04A
:1003330000EF2FFFEE33FEED33FD40B830E7C28010
:10034300AA74F8CC6480CCC86480C8F58204604F7A
:10035300C3EB9FF5F0EA9E42F0E99D42F0E89C452D
:10036300F0603C501DE5825FFFE582D313CB5BCB8E
:10037300F42B5582FB50280ABA002409B90020083F
:10038300801DE5825BFBE582D313CF5FCFF4C313FC
:100393002F5582FF50090EBE00050DBD00010CC391
:1003A300EB9FF5F0EA9E42F0E99D42F0E89C45F0B0
:1003B3006007CC4820E701B3EC2275F020800E756E
:1003C300F010800575F0087D007E007F003392D524
:1003D30030D5031208C3EC334010EF33FFEE33FE86
:1003E300ED33FDEC33FCD5F0ED22E5F0247EA2D510
:1003F30013CC92E7CDCEFF22EDD2E7CD33EC33928F
:10040300D524814006E4FFFEFDFC22FCE4CFCECDE3
:10041300CC24E0501174FF80EDC3CC13CCCD13CDAD
:10042300CE13CECF13CF0470F030D5DE0208C3E96C
:10043300D2E7C933E833F892D5EDD2E7CD33EC33C5
:10044300FC5002B2D522EC30E7100FBF000C0EBEF9
:1004530000080DBD00040BEB6014A2D5EB13FCEDFB
:1004630092E7FD2274FFFCFDFEFF22E480F8A2D593
:1004730074FF13FC7D80E480EFC0E0EFFBEEFAED48
:10048300F9ECF812019ED0E0F5F0EFFBEEFAEDF98E
:10049300ECF812092BA3A3A3A3E8C0E0E9C0E0EAA8
:1004A300C0E0EBC0E0C0F012019E120947A3A3A372
:1004B300A31200ADD0F0D0E0FBD0E0FAD0E0F9D049
:1004C300E0F8D5F0D422E709F608DFFA8046E70919
:1004D300F208DFFA803E88828C83E709F0A3DFFA13
:1004E3008032E309F608DFFA8078E309F208DFFADD
:1004F300807088828C83E309F0A3DFFA80648982A9
:100503008A83E0A3F608DFFA805889828A83E0A30E
:10051300F208DFFA804C80D280FA80C680D48069EA
:1005230080F28033801080A680EA809A80A880DAE7
:1005330080E280CA803389828A83ECFAE493A3C879
:10054300C582C8CCC583CCF0A3C8C582C8CCC5833B
:10055300CCDFE9DEE7800D89828A83E493A3F60882
:10056300DFF9ECFAA9F0EDFB2289828A83ECFAE049
:10057300A3C8C582C8CCC583CCF0A3C8C582C8CCE8
:10058300C583CCDFEADEE880DB89828A83E493A338
:10059300F208DFF980CC88F0EF60010E4E60C3886B
:1005A300F0ED2402B4040050B9F582EB2402B40444
:1005B3000050AF232345822390051973C2D530F72A
:1005C30007B2D563F0FF05F030E70CB2D5F404842D
:1005D30063F0FF05F080018430D502F40422BB01EF
:1005E3000689828A83E0225002E722BBFE02E322CD
:1005F30089828A83E49322BB010CE58229F582E593
:10060300833AF583E0225006E92582F8E622BBFE11
:1006130006E92582F8E222E58229F582E5833AF5A7
:1006230083E49322BB010689828A83F0225002F776
:1006330022BBFE01F322F8BB010DE58229F582E519
:10064300833AF583E8F0225006E92582C8F622BBF7
:10065300FE05E92582C8F222EF8DF0A4A8F0CF8C25
:10066300F0A428CE8DF0A42EFE22BC000BBE0029E0
:10067300EF8DF084FFADF022E4CCF875F008EF2F96
:10068300FFEE33FEEC33FCEE9DEC984005FCEE9D53
:10069300FE0FD5F0E9E4CEFD22EDF8F5F0EE84206F
:1006A300D21CFEADF075F008EF2FFFED33FD4007D0
:1006B300985006D5F0F222C398FD0FD5F0EA22C276
:1006C300D5EC30E709B2D5E4C39DFDE49CFCEE30E4
:1006D300E715B2D5E4C39FFFE49EFE12066DC3E4A3
:1006E3009DFDE49CFC800312066D30D507C3E49F97
:1006F300FFE49EFE22C5F0F8A3E028F0C5F0F8E57C
:1007030082158270021583E038F022A3F8E0C5F069
:1007130025F0F0E582158270021583E0C838F0E811
:1007230022BB010A89828A83E0F5F0A3E022500606
:1007330087F009E71922BBFE07E3F5F009E3192265
:1007430089828A83E493F5F074019322BB0110E557
:100753008229F582E5833AF583E0F5F0A3E02250A0
:1007630009E92582F886F008E622BBFE0AE925821C
:10077300F8E2F5F008E222E5832AF583E993F5F040
:10078300A3E99322BB010A89828A83F0E5F0A3F0EF
:10079300225006F709A7F01922BBFE06F3E5F0097C
:1007A300F31922E88FF0A4CC8BF0A42CFCE98EF093
:1007B300A42CFC8AF0EDA42CFCEA8EF0A4CDA8F0C6
:1007C3008BF0A42DCC3825F0FDE98FF0A42CCD358A
:1007D300F0FCEB8EF0A4FEA9F0EB8FF0A4CFC5F0F4
:1007E3002ECD39FEE43CFCEAA42DCE35F0FDE43CED
:1007F300FC2275F008758200EF2FFFEE33FECD3338
:10080300CDCC33CCC58233C5829BED9AEC99E5827E
:1008130098400CF582EE9BFEED9AFDEC99FC0FD50A
:10082300F0D6E4CEFBE4CDFAE4CCF9A88222B800FA
:10083300C1B90059BA002DEC8BF084CFCECDFCE5C5
:10084300F0CBF97818EF2FFFEE33FEED33FDEC33E9
:10085300FCEB33FB10D703994004EB99FB0FD8E56E
:10086300E4F9FA227818EF2FFFEE33FEED33FDECB7
:1008730033FCC933C910D7059BE99A4007EC9BFCAD
:10088300E99AF90FD8E0E4C9FAE4CCFB2275F01039
:10089300EF2FFFEE33FEED33FDCC33CCC833C8105E
:1008A300D7079BEC9AE899400AED9BFDEC9AFCE88C
:1008B30099F80FD5F0DAE4CDFBE4CCFAE4C8F922D9
:1008C300C3E49FFFE49EFEE49DFDE49CFC22EB9FBA
:1008D300F5F0EA9E42F0E99D42F0EC6480C8648042
:1008E3009845F022EB9FF5F0EA9E42F0E99D42F035
:1008F300E89C45F022E8600FECC313FCED13FDEE1A
:1009030013FEEF13FFD8F122BB010789828A83020A
:100913000A2C5005E9F8020A20BBFE05E9F8020A91
:100923003889828A8302092BE493FC740193FD7452
:100933000293FE740393FF22E0F8A3E0F9A3E0FA25
:10094300A3E0FB22E493F8740193F9740293FA741D
:100953000393FB227401FF3395E0FEFDFCA3A3A3E5
:10096300E0CF2FF0E582158270021583E0CE3EF0D2
:10097300E582158270021583E0CD3DF0E582158294
:1009830070021583E0CC3CF022ECF0A3EDF0A3EE73
:10099300F0A3EFF022A8828583F0D083D0821209DE
:1009A300AF1209AF1209AF1209AFE473E493A3C501
:1009B30083C5F0C583C8C582C8F0A3C583C5F0C588
:1009C30083C8C582C822F5F0C582A4C582C5F0C517
:1009D30083A42583F58322BB010789828A83020AC4
:1009E3004D5005E9F8020A44BBFE05E9F8020A5630
:1009F30089828A83020A5FD083D082F8E4937012DB
:100A0300740193700DA3A393F8740193F582888303
:100A1300E4737402936860EFA3A3A380DFE6FC088A
:100A2300E6FD08E6FE08E6FF22E0FCA3E0FDA3E006
:100A3300FEA3E0FF22E2FC08E2FD08E2FE08E2FF7B
:100A430022E6FB08E6FA08E6F922E0FBA3E0FAA3B4
:100A5300E0F922E2FB08E2FA08E2F922E493FB74EC
:100A63000193FA740293F9229000ACEBF0A3EAF03D
:100A7300A3E9F09000DA120998000000009000DE6C
:100A83007401F0A37400F0A374B2F09000AFE0FB24
:100A9300A3E0FAA3E0F91205E17003020FF6900058
:100AA300E1F064256003020FA29000AFA3E475F0A8
:100AB300011206F8A9F0FA1205E11209FA0F6E25E0
:100AC3000B6F460E48580AE8630B04640B6F660B02
:100AD30004690DCE6F0F15700E9C730D48750E488B
:100AE3007800000FE99000DEE0FBA3E475F0041248
:100AF300070EA9F0FA12090B9000E2EFF0E0020FE3
:100B0300B09000DEE0FBA3E475F00412070EA9F039
:100B1300FA12090B90010312098C900103E0FCA364
:100B2300E0FDA3E0FEA3E0FF7B017A0079E2900100
:100B33000F7401F0A3740AF012214D900107EFF036
:100B4300900103E0FCA3A3A3EC335014A3E024E23D
:100B5300F582E43400F583742DF0900107E004F08E
:100B63007B017A0079E2900107020D8C9000DEE0B0
:100B7300FBA3E475F00412070EA9F0FA12090B9017
:100B8300010312098C900103E0FCA3E0FDA3E0FE46
:100B9300A3E0FF1203FB7B017A0079E290010F745B
:100BA30001F0A3740AF012214D900107EFF0E4FF66
:100BB300FEFDFC900103E0F8A3E0F9A3E0FAA3E053
:100BC300FB74FC1203465016900107E024E2F58201
:100BD300E43400F583742DF0900107E004F07B0109
:100BE3007A0079E2900107122AE1900107E0FF7E83
:100BF300009000ACE0FBA3E0FAA3E0F8AC02AD0385
:100C03007B017A0079E2120599900107E0FFFD90DC
:100C130000ADE48DF01206F89000DAE0F8A3E0F9F5
:100C2300A3E0FAA3E0FBE4FCFDFEEB2FFFEE3AFEAC
:100C3300ED39FDEC38FC9000DA12098C900103E0E9
:100C4300FCA3E0FDA3E0FEA3E0FF1203FBEC120311
:100C5300BDA804A905AA06AB07900103E0FCA3E025
:100C6300FDA3E0FEA3E0FF1200A97B007A247974C0
:100C7300784912019E90010312098C900103E0FC54
:100C8300A3E0FDA3E0FEA3E0FFEC4D4E4F602490F4
:100C93000103A3A3A3E01203FB7B017A0079E29093
:100CA300010F7401F0A3740AF012214D900107EFB4
:100CB300F080209000E77430F09000E6F09000E5BB
:100CC300F09000E4F09000E3F09000E2F090010770
:100CD3007406F0900107E0FFFDD374069D7480F85D
:100CE30098401574E22FF582E43400F5837430F0F4
:100CF300900107E004F080DB900107E024E2F58235
:100D0300E43400F583742EF0900107E004122ADA2C
:100D1300900107E0FF7E009000ACE0FBA3E0FAA3A4
:100D2300E0F8AC02AD037B017A0079E212059990F9
:100D330000DAE0F8A3E0F9A3E0FAA3E0FB900107EF
:100D4300E0FF020E8A9000DEE0FBA3E475F00412DC
:100D5300070EA9F0FA12090B90010312098C9001F6
:100D630003E0FCA3E0FDA3E0FEA3E0FF7B017A0028
:100D730079E2E490010FF0A3740AF012214D90017F
:100D830007EFF07B017A0079E2122AE1900107E094
:100D9300FF7E009000ACE0FBA3E0FAA3E0F8AC0216
:100DA300AD037B017A0079E2120599900107E0FF18
:100DB300FD9000ADE48DF01206F89000DAE0F8A3A0
:100DC300E0F9A3E0FAA3E0FB020E8A9000DEE0FB69
:100DD300A3E475F00412070EA9F0FA12090B9001AF
:100DE3000312098C900103E0FCA3E0FDA3E0FEA342
:100DF300E0FF7B017A0079E2E490010FF0A374082D
:100E0300F012214D122AD6900107E0FF7E009000D8
:100E1300ACE0FBA3E0FAA3E0F8AC02AD037B017AFC
:100E23000079E2120599900107E0FFFD9000ADE41F
:100E33008DF01206F89000DAE0F8A3E0F9A3E0FAE7
:100E4300A3E0FB8042122117122AD6900107E0FF8C
:100E53007E009000ACE0FBA3E0FAA3E0F8AC02ADA7
:100E6300037B017A0079E2120599900107E0FFFD07
:100E73009000ADE48DF01206F89000DAE0F8A3E0FC
:100E8300F9A3E0FAA3E0FBE4FCFDFEEB2FFFEE3A4F
:100E9300FEED39FDEC38020FE29000DEE0FBA3E447
:100EA30075F00312070EA9F0FA1209DA9000E2EBCB
:100EB300F0A3EAF0A3E9F09000E2E0FBA3E0FAA3D9
:100EC300E0F91205E17003020FE91205E1FF90005A
:100ED300ACE0FBA3E0FAA3E0F9EF1206279000AD24
:100EE300E475F0011206F89000DAE0FCA3E0FDA33C
:100EF300E0FEA3E02401FFE43EFEE43DFDE43CFC10
:100F03009000DA12098C9000E3E475F0011206F800
:100F130080A5122117900107EFF07B017A0079E297
:100F23007F087E007D007C00122AE79000ACE0FB86
:100F3300A3E0FAA3E0F8AC02AD037B017A0079E207
:100F43007E007F081205999000ADE475F008120643
:100F5300F89000DAE0FCA3E0FDA3E0FEA3E02408A0
:100F6300FFE43EFEE43DFDE43C80749000ACE0FB16
:100F7300A3E0FAA3E0F974251206279000ADE47507
:100F8300F0011206F89000DAE0FCA3E0FDA3E0FE16
:100F9300A3E02401FFE43EFEE43DFDE43C804090F9
:100FA30000AFE0FBA3E0FAA3E0F91205E1FF900034
:100FB300ACE0FBA3E0FAA3E0F9EF1206279000AD43
:100FC300E475F0011206F89000DAE0FCA3E0FDA35B
:100FD300E0FEA3E02401FFE43EFEE43DFDE43CFC2F
:100FE3009000DA12098C9000B0E475F0011206F853
:100FF300020A8E9000DEE4F0A3F0A3F09000DAE0A2
:10100300FCA3E0FDA3E0FEA3E0FF22E4900004F0D4
:10101300A3F0A3F0A3F0A3F0A3F0A3F0A3F0A3F035
:10102300A374FFF0A3E4F0A374FFF0A3E4F0A374AC
:10103300FFF0A3E4F0A374FFF0E4A3F0A3F0A3F0A4
:10104300A3F0A3F0A3F0A3F0A3F0900002F0A3F0A9
:101053007D047F0412374CAC06AD07900003E025F6
:10106300E0FF900002E033FE741C2FF58274003E13
:10107300F583ECF0A3EDF07D047F0512374CAC064D
:10108300AD07900003E025E0FF900002E033FE741B
:10109300342FF58274003EF583ECF0A3EDF07D046C
:1010A3007F0612374CAC06AD07900003E025E0FF46
:1010B300900002E033FE744C2FF58274003EF583FA
:1010C300ECF0A3EDF07D047F0712374CAC06AD07BF
:1010D300900003E025E0FF900002E033FE74642FEC
:1010E300F58274003EF583ECF0A3EDF0741C2FF54C
:1010F3008274003EF583E0FEA3E0FF900004E0FC71
:10110300A3E0FDD39FEC9E4006AE04AF05800090A4
:101113000004EEF0A3EFF0900003E025E0FF900061
:1011230002E033FE741C2FF58274003EF583E0FE6B
:10113300A3E0FF90000CE0FCA3E0FDC39FEC9E50F6
:1011430006AE04AF05800090000CEEF0A3EFF09024
:101153000003E025E0FF900002E033FE74342FF536
:101163008274003EF583E0FEA3E0FF900006E0FCFE
:10117300A3E0FDD39FEC9E4006AE04AF0580009034
:101183000006EEF0A3EFF0900003E025E0FF9000EF
:1011930002E033FE74342FF58274003EF583E0FEE3
:1011A300A3E0FF90000EE0FCA3E0FDC39FEC9E5084
:1011B30006AE04AF05800090000EEEF0A3EFF090B2
:1011C3000003E025E0FF900002E033FE744C2FF5AE
:1011D3008274003EF583E0FEA3E0FF900008E0FC8C
:1011E300A3E0FDD39FEC9E4006AE04AF05800090C4
:1011F3000008EEF0A3EFF0900003E025E0FF90007D
:1012030002E033FE744C2FF58274003EF583E0FE5A
:10121300A3E0FF900010E0FCA3E0FDC39FEC9E5011
:1012230006AE04AF058000900010EEF0A3EFF0903F
:101233000003E025E0FF900002E033FE74642FF525
:101243008274003EF583E0FEA3E0FF90000AE0FC19
:10125300A3E0FDD39FEC9E4006AE04AF0580009053
:10126300000AEEF0A3EFF0900003E025E0FF90000A
:1012730002E033FE74642FF58274003EF583E0FED2
:10128300A3E0FF900012E0FCA3E0FDC39FEC9E509F
:1012930006AE04AF058000900012EEF0A3EFF090CD
:1012A3000002E0FCA3E0FD25E0FFEC33FE741C2FFD
:1012B300F58274003EF583E0FAA3E0FB900015E0AD
:1012C3002BF0900014E03AF074342FF58274003E52
:1012D300F583E0FEA3E0FF900017E02FF0900016E7
:1012E300E03EF0ED25E0FFEC33FE744C2FF5827405
:1012F300003EF583E0FCA3E0FD900019E02DF090A3
:101303000018E03CF074642FF58274003EF583E02E
:10131300FEA3E0FF90001BE02FF090001AE03EF0E8
:10132300900003E004F07006900002E004F0C39024
:101333000003E0940C900002E09400500302105369
:10134300900004E0FEA3E0FFC3900015E09FFF9030
:101353000014E09EFE90000CE0FCA3E0FDC3EF9DB3
:10136300FFEE9CFE7C007D0A12066D900348EEF0B2
:10137300A3EFF0900006E0FEA3E0FFC3900017E0A8
:101383009FFF900016E09EFE90000EE0FCA3E0FDA0
:10139300C3EF9DFFEE9CFE7C007D0A12066D900359
:1013A3004AEEF0A3EFF0900008E0FEA3E0FFC39045
:1013B3000019E09FFF900018E09EFE900010E0FCF3
:1013C300A3E0FDC3EF9DFFEE9CFE7C007D0A1206A9
:1013D3006D90034CEEF0A3EFF090000AE0FEA3E063
:1013E300FFC390001BE09FFF90001AE09EFE900059
:1013F30012E0FCA3E0FDC3EF9DFFEE9CFE7C007DAD
:101403000A12066D90034EEEF0A3EFF02290030D47
:10141300E0FF3395E0FEEF4E600302150C123399A3
:101423001233E61225D4122734122FC2AC06AD07AD
:10143300EC1203C290032112098C900321E0FCA358
:10144300E0FDA3E0FEA3E0FF1203FB900000EEF03B
:10145300A3EFF090034AE0FAA3E0FBC3940AEA94F3
:1014630000502D90034CE0FEA3E0C3940AEE9400D9
:10147300501E900000E0FCA3E0FD2432FEE43C900B
:101483000312F0A3CEF0900317ECF0A3EDF08079F4
:10149300C3EB940AEA9400500F90034CE0FEA3E0E0
:1014A300C3940AEE94004043900348E0FEA3E0D3C4
:1014B3009414EE9400400F90034EE0FEA3E0D39407
:1014C30014EE94005025900000E0FCA3E0FD24DC22
:1014D300FEEC3405900312F0A3CEF0ED2424FEECD1
:1014E30034FA900317F0A3CEF0801E90030D74011D
:1014F300F0900000E0FEA3E0FF900312EEF0A3EFF4
:10150300F0900317EEF0A3EFF090030DE0FF339597
:10151300E0FEEF64014E6003021698900337E00487
:10152300F01233991233E61225D4122734E4FF3034
:10153300C80912351290030BEE800C123512C3E466
:101543009FFFE49E90030BF0A3EFF07F0320CA09F3
:10155300123512900308EE800C123512C3E49FFF7C
:10156300E49E900308F0A3EFF0E4FF1234C97F0375
:101573001234C990030BE0FEA3E0FF900308E0FCE4
:10158300A3E0FD122885900338EEF0A3EFF090035B
:1015930038E0FCA3E0FDEC1203C290032BE0F8A3B8
:1015A300E0F9A3E0FAA3E0FB1200ADC004C005C05C
:1015B30006C007900358E0FCA3E0FDA3E0FEA3E010
:1015C300FF90000612098C900368E0FFA3E09000EF
:1015D3000ACFF0A3EFF0D007D006D005D004122F26
:1015E300EDAC06AD07EC1203C290032112098C1275
:1015F3001CBB900314EEF0A3EFF0900321E0FCA3D7
:10160300E0FDA3E0FEA3E0FF1203FB900000EEF079
:10161300FCA3EFF0FD900314E0FAA3E0FBC3ED9B02
:10162300FEEC9A900312F0A3CEF0EB2DFEEA3C9071
:101633000317F0A3CEF0900348E0FEA3E0C39405A4
:10164300EE9400503B90034AE0FEA3E0C39405EE02
:101653009400502C90034CE0FEA3E0C39405EE9459
:1016630000501D90034EE0FEA3E0C39405EE9400EA
:10167300500EE4FDFCFFFE12304A9003167401F095
:1016830090033EE0FF3395E0FEEF64014E70069059
:10169300030D7403F090030DE0FF3395E0FEEF6458
:1016A300034E60030217311233991233E61225D425
:1016B300122734122FC2AC06AD07EC1203C29003FB
:1016C3002112098C900321E0FCA3E0FDA3E0FEA31B
:1016D300E0FF1203FB900000EEF0A3EFF09003484D
:1016E300E0FEA3E0D3940AEE9400403490034EE06E
:1016F300FEA3E0D3940AEE94004025900000E0FCA2
:10170300A3E0FD24B8FEEC340B900312F0A3CEF05B
:10171300ED2448FEEC34F4900317F0A3CEF0800ED2
:101723009003167401F0E4FDFCFFFE12304A9003AF
:1017330016E0FF3395E0FEEF4E70297B0190000524
:1017430004F0A37403F0A37417F07A03791212312F
:10175300B9900312E0FEA3E0FF900317E0FCA3E0BF
:10176300FD12304A22ED600302180BEF54F0F9FB2F
:101773007A007013EF540FFEF87401088002C3332C
:10178300D8FCF452935294EB64104A7013EF540F45
:10179300FEF87401088002C333D8FCF452915292CC
:1017A300E964207013EF540FFEF87401088002C33C
:1017B30033D8FCF452955296E9FB7A0064307013E7
:1017C300EF540FFEF87401088002C333D8FCF452BF
:1017D300B152B2EB64404A7013EF540FFEF8740138
:1017E300088002C333D8FCF452B352B4E9645060A6
:1017F30003021A18EF540FFEF87401088002C33372
:10180300D8FCF452C952CA22ED640160030218BB2A
:10181300EF54F0F9FB7A007015EF540FFEF87401E2
:10182300088002C333D8FCFEF45293EE4294EB6477
:10183300104A7015EF540FFEF87401088002C33389
:10184300D8FCFEF45291EE4292E964207015EF54F5
:101853000FFEF87401088002C333D8FCFEF45295DE
:10186300EE4296E9FB7A0064307015EF540FFEF8F0
:101873007401088002C333D8FCFEF452B1EE42B2C5
:10188300EB64404A7015EF540FFEF87401088002B0
:10189300C333D8FCFEF452B3EE42B4E964506003A0
:1018A300021A18EF540FFEF87401088002C333D8EC
:1018B300FCFEF452C9021A15ED6402600302196CAE
:1018C300EF54F0F9FB7A007015EF540FFEF8740132
:1018D300088002C333D8FCFE4293EEF45294EB64C7
:1018E300104A7015EF540FFEF87401088002C333D9
:1018F300D8FCFE4291EEF45292E964207015EF5445
:101903000FFEF87401088002C333D8FCFE4295EE43
:10191300F45296E9FB7A0064307015EF540FFEF829
:101923007401088002C333D8FCFE42B1EEF452B214
:10193300EB64404A7015EF540FFEF87401088002FF
:10194300C333D8FCFE42B3EEF452B4E964506003EF
:10195300021A18EF540FFEF87401088002C333D83B
:10196300FCFE42C9EEF452CA22ED64036003021A7C
:1019730018EF54F0FD7C007014EF540FFEF874015F
:10198300088002C333D8FCFE4293EE4294ED641008
:101993004C7014EF540FFEF87401088002C333D85F
:1019A300FCFE4291EE4292EF54F064207014EF5427
:1019B3000FFEF87401088002C333D8FCFE4295EE93
:1019C3004296EF54F0FD7C0064307014EF540FFE28
:1019D300F87401088002C333D8FCFE42B1EE42B270
:1019E300ED64404C7014EF540FFEF874010880024C
:1019F300C333D8FCFE42B3EE42B4EF54F0645070EC
:101A030014EF540FFEF87401088002C333D8FCFEB0
:101A130042C9EE42CA2290007DEFF0E4900086F0C6
:101A2300A3F043BA8090007DE0FF1222CD90007EA8
:101A3300E0F8A3E0F9A3E0FAA3E0FB900388E0FC5D
:101A4300A3E0FDA3E0FEA3E0FF1208317810120823
:101A5300F8900086EEF0A3EFF090007EE0F8A3E0AC
:101A6300F9A3E0FAA3E0FB900388E0FCA3E0FDA365
:101A7300E0FEA3E0FF120831C006C007900087E034
:101A83002401FF900086E03400AB07FAE4F9F8D0B4
:101A930007D006120831EF24FFFFEE34FF900084D5
:101AA300F0A3EFF0900082E0FCA3E0FDE41203C298
:101AB3007B007A40791C78461202A7C004C005C097
:101AC30006C007900084E0FCA3E0FDE41203C2D04B
:101AD30003D002D001D00012019E1203FBAD07AC6C
:101AE3000690007DE0FFD374409F7480F898400314
:101AF300021BCB90FEB5C083C082E0FF90007DE067
:101B0300FEC4540F24FCF925E0FBF874010880029D
:101B1300C333D8FC4FD082D083F090FEB6C083C0CD
:101B230082E0FFEE5403FEA803088002C333D8FC0F
:101B33004FD082D083F0E9C31324ECFFE434FE8F4B
:101B430082F583C083C082E0FF90007DE0F9C45436
:101B53000FFE540125E025E0FBF87401088002C361
:101B630033D8FC4FD082D083F0EE24E4FFE434FE7C
:101B73008F82F583E04460F0E04408F0900084E055
:101B8300FFA3E090FEF2CFF0A3EFF0900086E0FF1A
:101B9300A3E090FEF0CFF0A3EFF0E9C4540F24FCD0
:101BA300FFE434FFFEEF25E0FFEE33FEEF24F5FF05
:101BB300EE34FE8F82F583ECF0A3EDF090FEFD741E
:101BC30080F090FEE0021CB790FEB1C083C082E0BB
:101BD300FB90007DE0FA5401F97E007401A801082E
:101BE3008005C333CE33CED8F9FFEAC4540F25E0C2
:101BF300FAEFA802088005C333CE33CED8F94BD011
:101C030082D083F090FEB2C083C082E0FF90007D5B
:101C1300E05407C313FEA802088002C333D8FC4F65
:101C2300D082D083F090007DE0FFC413540724CC0E
:101C3300FBE434FE8B82F583C083C082E0FEEFC4F5
:101C4300540FFF540125E025E0FBE925E02BFBF8C9
:101C53007401088002C333D8FC4ED082D083F0EFE6
:101C630024C8FFE434FE8F82F583E04460F0E0444F
:101C730008F0900084E0FFA3E090FED2CFF0A3EF42
:101C8300F0900086E0FFA3E090FED0CFF0A3EFF04A
:101C930090007DE0C4540F75F002A424D5FFE5F055
:101CA30034FE8F82F583ECF0A3EDF090FEDD7480BB
:101CB300F090FEC07401F0229002F5E0701B04F076
:101CC300900006E0FCA3E0FDA3E0FEA3E0FF120307
:101CD300FB9002F3EEF0A3EFF0900306E0FCA3E029
:101CE300FDEC1203C2C004C005C006C0079002FE8B
:101CF300E0FCA3E0FDEC1203C2D003D002D001D07C
:101D0300001202A7E4FBFA79C8784212019E900000
:101D13000212098C900002E0FCA3E0FDA3E0FEA305
:101D2300E0FFA804A905AA06FB12019E7B007A40E6
:101D3300799C78441202A7E4FBFAF978401200ADCB
:101D4300900002E0F8A3E0F9A3E0FAA3E0FB12019C
:101D53009EE4FBFA792078411202A790000212094F
:101D63008CE4FFFE7DC87C42900002E0F8A3E0F91A
:101D7300A3E0FAA3E0FB74FC120346600E400C9050
:101D8300000212099842C800008026E4FFFE7DC8C5
:101D93007CC2900002E0F8A3E0F9A3E0FAA3E0FB21
:101DA30074FC120346500A900002120998C2C8003C
:101DB3000090036AE0FCA3E0FDFFAE0412065BEEB5
:101DC3003395E0FDFC7B007A09793D78001235E418
:101DD300EC1203BD7BCD7ACC799478401200AD90A0
:101DE300000612098C9002F3E0FCA3E0FDEC120361
:101DF300C27B9A7A997999783E12019EC004C005F4
:101E0300C006C0077433FFFEFD7C3F900006E0F878
:101E1300A3E0F9A3E0FAA3E0FB12019ED003D002F2
:101E2300D001D0001200AD90000612098C90030877
:101E3300E0FEA3E0FF90030CE02FFF90030BE03ED6
:101E4300FE7C007D021206C2AC06AD07EC1203C293
:101E53009002FA12098C900300E0FCA3E0FDFFAEB0
:101E63000412065BAC06AD07EC1203C2C004C00546
:101E7300C006C0079002FAE0FCA3E0FDA3E0FEA3C6
:101E8300E0FFA804A905AA06FB12019ED003D00215
:101E9300D001D0001202A7E4FBFA7980783F120048
:101EA300AD900319E0F8A3E0F9A3E0FAA3E0FB1275
:101EB300019E900002E0F8A3E0F9A3E0FAA3E0FB9F
:101EC30012019EC004C005C006C00790030EE0FCCB
:101ED300A3E0FDA3E0FEA3E0FF900006E0F8A3E08B
:101EE300F9A3E0FAA3E0FB12019EC004C005C006FB
:101EF300C00790036AE0FCA3E0FDEC1203C2D00329
:101F0300D002D001D00012019ED003D002D001D064
:101F1300001200AD1203FB90000AEEF0A3EFF09065
:101F23000006E0FCA3E0FDA3E0FEA3E0FF1203FB39
:101F33009002F3EEF0A3EFF090000AE0FEA3E0FFBF
:101F43002290007DEFF0A3EDF0A3EBF0A3E0F8A364
:101F5300E0F9A3E0FAA3E0FB900388E0FCA3E0FD33
:101F6300A3E0FEA3E0FF120831E47B04FAF9F812C0
:101F73000831C3E49FFFE49EAD07FC90007DE014AD
:101F8300700302201D1470030220601470030220EA
:101F9300B924036003022116900084E0FB7A0064F5
:101FA3000170144398508D8BECF58D438E40D28E87
:101FB300E49002E5F08011EB64024A700B43985001
:101FC3008DD7ECF5D6438E1553A23F90007EE0F9F2
:101FD300FF7E007008A3E0640170028035EF6402A5
:101FE3004E700D90007FE06403700543A240802291
:101FF300E96404700D90007FE06405700543A280DE
:102003008010E96406700B90007FE064077003435F
:10201300A2C0E49002E5F0D2AC22900084E0640216
:10202300700B439A108DD7ECF5D6438E1453BAFE3A
:1020330090007EE0FF7E0064087008A3E0640970EE
:10204300028011EF640A4E700B90007FE0640B7006
:102053000343BA0143AF01E49002E6F02290008407
:10206300E0FB7A006402700D439A108DD7ECF5D62D
:10207300438E148011EB64034A700B43AC508DD52F
:10208300ECF5D443D10A53BAFD90007EE0FF7E0005
:10209300640C7008A3E0640D70028011EF640E4EAF
:1020A300700B90007FE0640F700343BA0243AF08E4
:1020B300E49002E7F022900084E0FB7A006402706F
:1020C3000D4384108DD7ECF5D6438E148011EB6449
:1020D300044A700B4384508DD3ECF5D243D1A05303
:1020E300BAFB90007EE0FF7E0064107008A3E064FA
:1020F3001170028016EF64124E701090007FE0643E
:10210300137008F5CA75C90443BA0443AF10E490C9
:1021130002E8F0229000DEE0FBA3E475F00412076E
:102123000EA9F0FA12090B90010312098C90010316
:10213300E0FCA3E0FDA3E0FEA3E0FF7B017A0079CE
:10214300E2E490010FF0A37410F090010812098CDF
:1021530090010CEBF0A3EAF0A3E9F0E4900119F08D
:10216300A3F090010FE0700302221C900108E0FC31
:10217300A3E0FDA3E0FEA3E0FF90011112098C9000
:102183000111E0FCA3E0FDA3E0FEA3E0FFEC33506C
:1021930010900111A3A3A3E01208C3900111120927
:1021A3008C900110E0FBE4FAF9F8A3E0FCA3E0FD56
:1021B300A3E0FEA3E0FF1235E4EB2430FF90010C13
:1021C300E0FBA3E0FAA3E0F9EF120627900111E088
:1021D300FCA3E0FDA3E0FEA3E0FFC007900110E035
:1021E300FBE4FAF9F8D0071235E490011112098CD7
:1021F30090011AE004F0900111E0FCA3E0FDA3E0DC
:10220300FEA3E0FFEC4D4E4F70030222C790010D79
:10221300E475F0011206F88088900108E0FCA3E061
:10222300FDA3E0FEA3E0FF90011512098C900110BD
:10223300E0FBE4FAF9F8900115E0FCA3E0FDA3E06C
:10224300FEA3E0FF120831AF03900119EFF0D3743E
:102253000A9F7480F8985006E02437F080079001B5
:1022630019E02430F0900119E0FF90010CE0FBA38A
:10227300E0FAA3E0F9EF120627900115E0FCA3E0D2
:10228300FDA3E0FEA3E0FFC007900110E0FBE4FA2A
:10229300F9F8D00712083190011512098C90011A30
:1022A300E004F0900115E0FCA3E0FDA3E0FEA3E051
:1022B300FFEC4D4E4F600D90010DE475F0011206D9
:1022C300F802223090011AE0FF22EF1209FA235399
:1022D30000235A01236102236803236F0423760535
:1022E300237D10238411238B122392132399142308
:1022F300A01523A72023AE2123B52223BC2323C368
:102303002423CA2523D13023D83123DE3223E433D7
:1023130023EA3423F03523F63623FC372402402402
:102323000841240E42241443241A50242051242605
:1023330052242C53243260243861243E62244463A3
:10234300244A7023F6712450722456730000245DCE
:102353007D017F1002245A7D017F1102245A7D01E1
:102363007F2002245A7D017F2102245A7D017F6050
:1023730002245A7D017F6102245A7D017F120224C7
:102383005A7D017F1302245A7D017F2202245A7D44
:10239300017F2302245A7D017F6202245A7D017F3B
:1023A3006302245A7D017F1402245A7D017F1502A2
:1023B300245A7D017F2402245A7D017F2502245A59
:1023C3007D017F6402245A7D017F6502245A7D01C9
:1023D3007F1602245A7D017F17807C7D017F268032
:1023E300767D017F2780707D017F66806A7D017F16
:1023F3006780647D017F34805E7D017F3380587DFB
:10240300017F2080527D017F17804C7D01E4FF8096
:10241300467D017F7480407D017F21803A7D017F6D
:102423005480347D017F01802E7D017F7580287D5E
:10243300017F2280227D017F33801C7D017F02800A
:10244300167D017F7680107D017F23800A7D017FC9
:102453000380047D017F771217682290007DEEF0E0
:10246300A3EFF0A3ECF0A3EDF0900086E0FFC374BC
:10247300069F7480F89850037406F0900085E0FF7F
:10248300C3740A9F7480F8985003740AF090008113
:10249300E0FCA3E0FDA3E0FEA3E0FFE4FBFAF9F810
:1024A30074FC1203469000AF6031402F74FFF0A319
:1024B3007447F0A37472F0900081E0FCA3E0FDA3E5
:1024C300E0FEA3E0FF9000B212098C7B017A007951
:1024D30088120A6B900087EFF0803074FFF0A374CA
:1024E30047F0A37472F0900081E0FCA3E0FDA3E049
:1024F300FEA3E0FF9000B212098C7B017A00798978
:10250300120A6B900087EFF0E004F0900087E0245C
:10251300F9FD900085E0FEC3ED9E149000AAF090B3
:102523000086E0AE052E049000ABF09000AAE0FF19
:102533003395E0FED3E49FEE6480F87480984022E4
:10254300A3E0FF3395E0FE74882FF58274003EF517
:10255300837420F09000ABE004F09000AAE004F054
:1025630080C9900081E0FCA3E0FDA3E0FEA3E0FFAF
:10257300E4FBFAF9F874FC1203469000AA601740D2
:1025830015E0FF3395E0FE74882FF58274003EF565
:1025930083742DF08013E0FF3395E0FE74882FF5EC
:1025A3008274003EF5837420F09000ABE0FF339516
:1025B300E0FE74882FF58274003EF583E4F090000A
:1025C3007DA3E0FFA3A3E0FD7B017A007988022EBF
:1025D300199000061209983DC28F5C90000A1209F7
:1025E3009838FBA882900347E0701604F09000022D
:1025F300E0FCA3E0FDA3E0FEA3E0FF90033F12098C
:102603008C900360E0FCA3E0FDEC1203C290035046
:1026130012098C900364E0FCA3E0FDEC1203C2906A
:10262300035412098C900368E0FCA3E0FDEC120351
:10263300C290035C12098C90000AE0FCA3E0FDA3A6
:10264300E0FEA3E0FF90035CE0F8A3E0F9A3E0FA67
:10265300A3E0FB12019E90034312098C90033FE019
:10266300FCA3E0FDA3E0FEA3E0FFA3E0F8A3E0F9F1
:10267300A3E0FAA3E0FB1200AD1203FBAD07AC0627
:10268300EC1203C290033F12098C900354E0F8A3A9
:10269300E0F9A3E0FAA3E0FB900350E0FCA3E0FD24
:1026A300A3E0FEA3E0FF1202A71229D4E4FBFA7908
:1026B30034784312019E7BC37AF57948784012023D
:1026C300A71203FBAD07AC06EC1203C29000021283
:1026D300098C900006E0F8A3E0F9A3E0FAA3E0FB7D
:1026E300E4FFFE7D807C3F1200A9900358E0F8A32D
:1026F300E0F9A3E0FAA3E0FB12019EC004C005C009
:1027030006C007900002E0FCA3E0FDA3E0FEA3E007
:10271300FFA3E0F8A3E0F9A3E0FAA3E0FB12019E14
:10272300D003D002D001D0001200AD9003580209AB
:102733008C12100E900348E0FEA3E0FF90032FEEEF
:10274300F0A3EFF090034AE0FCA3E0FD900331EC2B
:10275300F0A3EDF090034CE0FBA3E0900333CBF048
:10276300A3EBF090034EE0FBA3E0900335CBF0A383
:10277300EBF0EF2DFBEE3CFA90034CE0FEA3E0FF01
:10278300C3EB9FFFEA9EFE90034EE0FCA3E0FDC374
:10279300EF9DFFEE9C9002FEF0A3EFF090034DE05F
:1027A3002BFF90034CE03AFE90034FE02FFF900382
:1027B3004EE03E900306F0A3EFF0E4FDEDFF33950A
:1027C300E0FEC3EF9404EE64809480400302288407
:1027D300E4FCECFF3395E0FEC3EF9403EE648094D6
:1027E300804003022880EDFF3395E0FEEF25E0FFF4
:1027F300EE33FE74312FF58274033EF583E0FAA3C2
:10280300E0FB742F2FF58274033EF583E0FEA3E013
:10281300D39BEE9A4063EDFF3395E0FEEF25E0FF97
:10282300EE33FE742F2FF58274033EF583A3E0F994
:1028330074312FF58274033EF583E0FAA3E0FBEDD8
:10284300FF3395E0FEEF25E0FFEE33FE742F2FF507
:102853008274033EF583EAF0A3EBF0E9FBEDFF336B
:1028630095E0FEEF25E0FFEE33FE74312FF5827421
:10287300033EF583E4F0A3EBF00C0227D50D02270A
:10288300BF22900002EEF0A3EFF0AB05AA04A3125F
:1028930009983F333333900337E0FF3395E0FEEF7E
:1028A30064124E600302297A900003E02BFF90002C
:1028B30002E03AFE7C007D021206C2900300E0FCB7
:1028C300A3E0FDC3EF9DFFEE9C9002EFF0A3EFF0BA
:1028D300900004E0F8A3E0F9A3E0FAA3E0FBE4FF2F
:1028E300FE7D807C3F1200A9C004C005C006C0075E
:1028F3009002F1E0FCA3E0FDEC1203C2D003D0028E
:10290300D001D00012019EC004C005C006C00790CC
:1029130002EFE0FCA3E0FDEC1203C2900004E0F838
:10292300A3E0F9A3E0FAA3E0FB12019ED003D002D7
:10293300D001D0001200AD1203FB9002EBEEF0A326
:10294300EFF09002EBE0FCA3E0FD9002F1ECF0A3CA
:10295300EDF0EC1203C290033AE0F8A3E0F9A3E030
:10296300FAA3E0FB12019E1203FB9002EDEEF0A32B
:10297300EFF0E4900337F09002EDE0FEA3E0FFD325
:102983009408EE6480948040067E007F088019C31B
:10299300EF94FDEE6480947F50067EFF7FFD8008F8
:1029A3009002EDE0FEA3E0FF9002EDEEF0A3EFF066
:1029B30022BE1249253E4CCCCDBEAAAAAB3F800015
:1029C300003E7ADBB03EED63383F24BC7D3F490FC8
:1029D300DBED33ECC2E7CC339200B4FF13ED547F4D
:1029E30060030204677FDB7E0F7DC97C3F022AC937
:1029F300C201C3947F401E7007EDD2E79490401547
:102A0300EFFBEEFAEDF9ECF87F007E007D807C3F72
:102A13001202A7D201ED33EC33248430E705E4C07E
:102A2300E0806B04FAEDD2E754F0C333DAFD5407C8
:102A330034002323C0E0CCC0E0F8EDC0E0F9EEC0E1
:102A4300E0FAEFC0E0FBE41203C7EC24FEFC9000C5
:102A53000E12098C12019E7B007A007980783F1256
:102A630000AD90000EE0B2E7CCF0A3E0CDF0A3E020
:102A7300CEF0A3E0CFF0D0E0FBD0E0FAD0E0F9D085
:102A8300E0F81200AD90000E12093B1202A790006D
:102A93000E12098C9029B4740312047C90000E1258
:102AA300093B12019ED0E0600F24C0F582E4342973
:102AB300F5831209471200AD30010B7BDB7A0F79E6
:102AC300C978BF1200ADED33EC336006ECA200927F
:102AD300E7FC22900107EFF07B017A0079E2E0FF47
:102AE300E4FCFDFE900108EBF0A3EAF0A3E9F0A3F8
:102AF30012098C90010F12099800000000E47B0278
:102B0300FAF9F890010BE0FCA3E0FDA3E0FEA3E0DB
:102B1300FF12083190010FE0F8A3E0F9A3E0FAA354
:102B2300E0FBC31208E74003022BCE90010BA3A3E3
:102B3300E0FEA3E024FFFBEE34FFFAA3A3A3E0FE31
:102B4300A3E0FFC3EB9FFDEA9EFC900108E0FBA31B
:102B5300E0FAA3E0F98D828C831205FA900113F059
:102B63008F828E831205FAFFC00790010BA3A3E0A7
:102B7300FEA3E024FFFBEE34FFFAA3A3A3E0FEA32E
:102B8300E0FDAC06C3EB9DFFEA9CFE900108E0FB71
:102B9300A3E0FA8F828E83D0E0120639900113E00E
:102BA300FFEF8D828C8312063990010FE0FCA3E0C6
:102BB300FDA3E0FEA3E02401FFE43EFEE43DFDE4CB
:102BC3003CFC90010F12098C022B0022900007ECB1
:102BD300F0A3EDF0900006EFF0D374409F7480F8FB
:102BE300985063A3E0FCA3E0FDE41203C27B007AE8
:102BF30040791C78461202A7C004C005C006C0076E
:102C030090FEF2E0FCA3E0FDE41203C2D003D00285
:102C1300D001D00012019E1203FB900009EEF0A335
:102C2300EFF0900009E0FCA3E0FD900006E0C4543F
:102C33000F24FCFFE434FFFEEF25E0FFEE33FEEF4D
:102C430024F5FFEE8059900007E0FCA3E0FDE412B9
:102C530003C27B007A40791C78461202A7C004C0E5
:102C630005C006C00790FED2E0FCA3E0FDE412031A
:102C7300C2D003D002D001D00012019E1203FB90F8
:102C83000009EEF0A3EFF0900009E0FCA3E0FD9053
:102C93000006E0C4540F75F002A424D5FFE5F03418
:102CA300FE8F82F583ECF0A3EDF0221231477FE82B
:102CB3007E031200267FE87E031200267FE87E0350
:102CC3001200267FE87E031200261200501232ED16
:102CD300123147122D7312322812359EE4FD7F0EF6
:102CE300123480E4FD7F04123480E4FD7F05123446
:102CF30080E4FD7F06123480E4FD7F07123480E414
:102D0300FF1236287F0312362890007E120998009E
:102D1300004268E4900082F0A3F07F42121A1990F7
:102D2300007E12099800004268E4900082F0A3F04C
:102D33007F52121A1990007E12099800004268E42B
:102D4300900082F0A3F07F12121A1990007E1209EC
:102D53009800004268E4900082F0A3F07F32121AD8
:102D6300191239447D057C007F01122EA902005EF1
:102D7300D287D2B7C2B57F327E00120026D2B57F8A
:102D8300AE123785E4FF1237857F101237857F40F7
:102D93001237857F811237857F7F1237857FA11296
:102DA30037857FC81237857FA61237857FA81237EC
:102DB300857F3F1237857FD3123785E4FF1237852E
:102DC3007FD51237857F801237857FD91237857F6C
:102DD300F11237857FDA1237857F121237857FDB51
:102DE3001237857F401237857F201237857F021285
:102DF30037857F8D1237857F141237857FA412376D
:102E0300857FA61237857FAF123785E4FF1236E040
:102E1300E4FDFF0239309000ACEFF0A3EDF0A3EB3B
:102E2300F0A3EAF0A3E9F0E4A3F0FCA3F09000AE72
:102E3300E0FBA3E0FAA3E0F99000B2E0F58275832A
:102E4300001205FA605F24E09000B1F09000ACE05E
:102E5300D3947E748094804006E4F0A3E004F09061
:102E630000ACE0FFA3E0FD123930E4FCECC39406B0
:102E73007480948050209000B1E075F006A4245330
:102E8300F582E5F0343FF583E5822CF582E4358362
:102E93001237D60C80D69000ACE02406F09000B236
:102EA300E004F080882290007DEFF07E037FE8123B
:102EB300066D7C007D0C12065BAB07AA06E4F9F8ED
:102EC300900388E0FCA3E0FDA3E0FEA3E0FF12086B
:102ED30031C3E49FFFE49EFE90007DE0F9FD7C009A
:102EE300700A8F8AEEF58CD28CD2A922ED64014C44
:102EF300700A8F8BEEF58DD28ED2AB22E9FD7C006A
:102F03006402700C8FD7EEF5D6438E1043AF0422C4
:102F1300ED64034C700C8FD5EEF5D443D10843AF69
:102F23002022E96404700B8FD3EEF5D243D18043A2
:102F3300AF4022787FE4F6D8FD758120022F7D0211
:102F430037AAE493A3F8E493A34003F68001F208BD
:102F5300DFF48029E493A3F85407240CC8C333C4D3
:102F6300540F4420C8834004F456800146F6DFE43E
:102F7300800B010204081020408090384BE47E014E
:102F83009360BCA3FF543F30E509541FFEE493A3B1
:102F930060010ECF54C025E060A840B8E493A3FAC3
:102FA300E493A3F8E493A3C8C582C8CAC583CAF04F
:102FB300A3C8C582C8CAC583CADFE9DEE780BE905D
:102FC3000358E0FCA3E0FDA3E0FEA3E0FF900006AE
:102FD30012098C900368E0FFA3E090000ACFF0A3EE
:102FE300EFF07F007E007D407C41AB07AA06A90578
:102FF300A804900006E0FCA3E0FDA3E0FEA3E0FF2D
:103003001200A9900325E0F8A3E0F9A3E0FAA3E0F6
:10301300FB12019EC004C005C006C00790000AE071
:10302300FCA3E0FDEC1203C290031DE0F8A3E0F95A
:10303300A3E0FAA3E0FB12019ED003D002D001D09B
:10304300001200AD0203FB900004ECF0A3EDF0903E
:103053000002EEF0A3EFF0C3EE64809480900002D0
:10306300E0FE50131238EDAC06AD077F52122BCFA2
:10307300E4FDFC7F4280111238EDAC06AD077F42C0
:10308300122BCFE4FDFC7F52122BCF900004E0FE05
:10309300A3E0FFC3EE6480948050131238F0AC06B3
:1030A300AD077F32122BCFE4FDFC7F128019900015
:1030B30004E0FEA3E0FF1238F0AC06AD077F121266
:1030C3002BCFE4FDFC7F32122BCF22900008EFF0D0
:1030D300A3EDF0A3EBF0A3EAF0A3E9F012395490C7
:1030E3000008123800A3E0FF12380490000EE064D9
:1030F300017003120046123954900008E025E044A1
:1031030001FF12380490000DE014F060207F0112DB
:10311300371790000AE0FBA3E0FAA3E0F9EF1206E9
:103123002790000BE475F0011206F880D8E4FF1233
:10313300371790000AE0FBA3E0FAA3E0F9EF1206C9
:1031430027020046E47B107A27F9F8900388E0FC15
:10315300A3E0FDA3E0FEA3E0FF12083190038CEE91
:10316300F0A3EFF07B407A42790F7800900388E078
:10317300FCA3E0FDA3E0FEA3E0FF120831EF24FE71
:10318300FFEE34FF90038EF0A3EFF07F007E1B7DF4
:10319300B77C00900388E0F8A3E0F9A3E0FAA3E08A
:1031A300FBD31208E7500E90038FE004F0700690F3
:1031B300038EE004F022120724D3940FE5F0648019
:1031C30094A74008742775F00F120787120724C3CA
:1031D30094F1E5F064809458500874D875F0F112B6
:1031E3000787900005E0FBA3E0FAA3E0F9120724A8
:1031F300D3940FE5F0648094A74008742775F00F0B
:10320300120787900005E0FBA3E0FAA3E0F9120799
:1032130024C394F1E5F064809458500874D875F091
:10322300F1120787227F0A7E001200261238267BBE
:10323300807D6B7F681200667F027E00120026E4A9
:10324300FB7D6B7F6812366AEF20E7F37B017D6BB2
:103253007F68120066E4FB7D6C7F681200667B0169
:103263007D1A7F681200667B077D197F68120066EE
:103273007B187D1B7F681200667B107D1C7F6812A4
:1032830000667B037D1D7F68020066E4FFEFC39445
:1032930080748094805038EF25E0241EF582E43456
:1032A30001F583A3E0FEEF25E0241CF582E434015D
:1032B300F583A3E0C39EFD3395E0FCC3ED940AECD4
:1032C30064809480400690030AE004F00F80BE906F
:1032D300030AE0FF3395E0FEC3EF940AEE648094A3
:1032E30080400690033EE004F02243FF10900388E1
:1032F30012099802A30000123147E4F594F593F5FF
:1033030092F591F596F595F5B2F5B1F5B4F5B3F5FA
:10331300CAF5C9F5CCF5CBF5E2F5E1F5DEF58EF5A9
:1033230098F59AF5ACF584F5A2F5BAF5AFF5899061
:1033330000801209980001C2009000847402F07B9F
:1033430001E4FDFF021F44C0E0C083C082C0D0750A
:10335300D000C007E59830E1085398FD9002E5E4FA
:10336300F0E59830E0255398FEAF99EF647F70162F
:10337300900390E0FF04F0D3EF94147480948040A2
:103383000A75C7608005900390E4F0D007D0D0D0D1
:1033930082D083D0E0327B017A00790290000D74F1
:1033A30006F0E4A3F07D3B7F681230CE900002E08C
:1033B300FEA3E0FDEDFF900360EEF0A3EFF09000BD
:1033C30004E0FEA3E0FDEDFF900362EEF0A3EFF057
:1033D300900006E0FEA3E0FDEDFF900364EEF0A392
:1033E300EFF0227B017A00790290000D7406F0E47D
:1033F300A3F07D437F681230CE900002E0FEA3E08D
:10340300FDEDFF900366EEF0A3EFF0900004E0FE05
:10341300A3E0FDEDFF900368EEF0A3EFF09000064C
:10342300E0FEA3E0FDEDFF90036AEEF0A3EFF022D0
:10343300E490007CF0D2A0C2A1C2A0D2A1D2A0C2CB
:10344300A1F090007CE0C39480748094805027C2E4
:10345300A07D027F0D12374C90007CE025E0241CF8
:10346300F582E43401F583EEF0A3EFF0D2A09000EF
:103473007CE004F080CC90011B7401F02243BC80FB
:10348300EF131313541FFB7A0064017017EF5407F3
:10349300FEF87401088002C333D8FCFEF45294EEA4
:1034A30042938019EB4A7015EF5407FEF874010834
:1034B3008002C333D8FCFEF45292EE4291ED540FD6
:1034C30042DE43DE2022EF14601714601E146027CF
:1034D30014603024047037C28CE4F58CF58AD28CE6
:1034E30022C28EE4F58DF58BD28E22538EEFE4F556
:1034F300D6F5D7438E102253D1F7E4F5D4F5D5434F
:10350300D1082253D17FE4F5D2F5D343D18022EF02
:1035130014601714601E14602514602C240470308A
:10352300AF8CEFFCAF8AEFFD8026AF8DEFFCAF8B46
:10353300EFFD801CAFD6EFFCAFD7EFFD8012AFD409
:10354300EFFCAFD5EFFD8008AFD2EFFCAFD3EFFDBB
:10355300AF05AE0422C0E0C0F0C083C082C0D07506
:10356300D000C000C001C002C003C004C005C00633
:10357300C00712343312328E90030AE4F053EFFB88
:10358300D007D006D005D004D003D002D001D0009C
:10359300D0D0D082D083D0F0D0E03290032512096E
:1035A30098438C000090031D120998BFA66666908D
:1035B300033A120998BE3851EC9003191209984244
:1035C30020000090030E120998BE147AE190032B99
:1035D30012099840C00000900300E4F0A37446F081
:1035E30022C2D5E830E70FB2D5E4C39BFBE49AFAD5
:1035F300E499F9E498F8EC30E717B2D512361A12C9
:103603000831E4C39BFBE49AFAE499F9E498F8805F
:103613000312083130D50DE4C39FFFE49EFEE49D01
:10362300FDE49CFC22EF146018146020146026143F
:10363300602C24047030E4F58AF58C438904D28C21
:1036430022E4F58BF58D438940D28E22E4F5D7F53C
:10365300D6438E1822E4F5D5F5D443D10C22E4F5F4
:10366300D3F5D243D1C02290007EEDF0AA07A9037F
:10367300123954EA25E0FF123804E0FF123804E956
:1036830064017003120046123954AF02EF25E0447F
:1036930001FF123804E4FF123717AD07120046AFDB
:1036A3000522C0E0C0F0C083C082C0D075D000C086
:1036B30000C001C002C003C004C005C006C0071299
:1036C3001410D007D006D005D004D003D002D00107
:1036D300D000D0D0D082D083D0F0D0E032AC07E499
:1036E300FBEBC39408748094805028EB24B0FF1242
:1036F30037857F011237857F10123785E4FAEAC3D5
:103703009480748094805008AF041237DB0A80EEF3
:103713000B80CE22AD07E4FBC2A512390BD2A3E482
:10372300FAEAC3940874809480501112390B123949
:1037330004EB25E0FB30A3010B0A80E5C2A5123997
:103743000BAF051238D3AF0322A90553BCF0EF42E8
:10375300BC43BC40E5BC30E5FB53BCDFAFBDEFFE73
:10376300ADBEEDFFE4F5BDF5BEAD01EFA8050880E4
:1037730005CEC313CE13D8F9FF2254F0C4540F441B
:1037830010FF7E08C287C2C9C2B7AD061EED601422
:10379300EF30E704D2B68002C2B6D2B7C2B7EF2584
:1037A300E0FF80E6D28722122CAE900358E0FCA300
:1037B300E0FDA3E0FEA3E0FF90008112098C9000DE
:1037C300857404F0A37402F0E4FDFC7F32FE12243E
:1037D3005E80D7F583E493FF7E08C287D2C9C2B760
:1037E300AD061EED6014EF30E704D2B68002C2B618
:1037F300D2B7C2B7EF25E0FF80E6D28722E025E00B
:10380300FFAD077B08AF031BEF6015ED30E704D274
:10381300A38002C2A3ED25E0FD123906C2A580E50F
:1038230002391AE490007DF090007DE06412601785
:10383300E4FB7D757F6812366A90007DEFF07F0AA6
:103843007E0012002680E12244038800000000422B
:10385300038C000042038E0000410337004103162E
:103863000041030D0041033E0000C0E0C083C0825D
:10387300E59A30E108539AFD9002E6E4F0E59A30C8
:10388300E003539AFED082D083D0E032C0E0C083FD
:10389300C082E5AC30E10853ACFD9002E7E4F0E50B
:1038A300AC30E00353ACFED082D083D0E032C0E032
:1038B300C083C082E58430E1085384FD9002E8E4CC
:1038C300F0E58430E0035384FED082D083D0E0322D
:1038D300AD07C2A512390BED6004C2A38002D2A3C7
:1038E300D2A512390BC2A502390BA3E0FFD3EF9483
:1038F30000EE64809480400122C3E49FFFE49EFEB7
:1039030022C2A512390BD2A57F0A7E00EF1FAC0697
:1039130070011E4C70F62212390430A306C2A5E4CE
:10392300FEFF22C2A512390B7E007F0122AC07EDF8
:1039330024B0FF123785EC12377DEC540FFF0237AA
:10394300857D017F0D1234807D0A7C007F04022E69
:10395300A9D2A3D2A512390BC2A312390BC2A52235
:103963000000000000000000000000000000000054
:1039730000000008080808080808000008080000FC
:103983000048242412000000000000000000000092
:103993000000004848487E2424247E242424000078
:1039A3000000103C5252121C30505052523C101026
:1039B300000000222515150D2A58545452220000E8
:1039C3000000000C1212120A76252919916E0000CC
:1039D30000060404020000000000000000000000D4
:1039E30000402010100808080808081010204000A4
:1039F3000002040808101010101010080804020038
:103A03000000000008086B1C1C6B08080000000085
:103A13000000000000101010FE1010100000000045
:103A23000000000000000000000000000604040283
:103A330000000000000000007E0000000000000005
:103A43000000000000000000000000000606000067
:103A5300000040202020101008080804040202007F
:103A6300000000182442424242424242241800000D
:103A7300000000101C10101010101010107C00001B
:103A83000000003C4242424020100804427E0000F5
:103A93000000003C4242402018204042423C0000CB
:103AA30000000020303028242422FE2020F80000CB
:103AB3000000007E0202021E22404042221C00003F
:103AC300000000182402023A4642424244380000F1
:103AD3000000007E4220201010080808080800009B
:103AE3000000003C4242422418244242423C00006F
:103AF3000000001C22424242625C40402418000045
:103B03000000000000001818000000001818000052
:103B13000000000000000008000000000008080882
:103B23000000004020100804020408102040000098
:103B33000000000000007E00007E00000000000086
:103B430000000002040810204020100804020000B6
:103B53000000003C424246201010100018180000DC
:103B63000000001C225A55555555553A423C000059
:103B73000000000808181414243C224242E7000005
:103B83000000001F2222221E22424242221F000066
:103B93000000007C4242010101010142221C00009D
:103BA3000000001F2242424242424242221F0000C2
:103BB3000000003F4212121E12120242423F000056
:103BC3000000003F4212121E1212020202070000FE
:103BD3000000003C2222010101712122221C00006D
:103BE300000000E7424242427E42424242E7000076
:103BF3000000003E0808080808080808083E0000FE
:103C03000000007C10101010101010101010110F75
:103C13000000007722120A0E0A12122222770000F5
:103C2300000000070202020202020202427F0000B9
:103C33000000007736363636362A2A2A2A6B0000E9
:103C4300000000E346464A4A52525262624700006D
:103C53000000001C2241414141414141221C00001E
:103C63000000003F424242423E02020202070000BD
:103C73000000001C224141414141414D321C600082
:103C83000000003F4242423E1212222242C700007D
:103C93000000007C4242020418204042423E0000E1
:103CA3000000007F4908080808080808081C0000ED
:103CB300000000E74242424242424242423C00008C
:103CC300000000E7424222242414141808080000CC
:103CD3000000006B2A2A2A2A2A361414141400001E
:103CE300000000E7422424181818242442E70000A7
:103CF300000000772222141408080808081C00009A
:103D03000000007E2120101008040442423F0000FE
:103D13000078080808080808080808080808780050
:103D2300000002040404080808101020202040406A
:103D3300001E1010101010101010101010101E0084
:103D43000018240000000000000000000000000034
:103D530000000000000000007E00000000000000E2
:103D63000006080000000000000000000000000042
:103D7300000000000000001C22302C22326C0000E6
:103D8300000000000302021A26424242261A0000E3
:103D93000000000000000038440202024438000022
:103DA300000000006040407C4242424262DC00006E
:103DB300000000000000003C42427E02423C000042
:103DC300000000003048083E08080808083E0000CC
:103DD300000000000000007C22221C023C42423C06
:103DE300000000000302023A4642424242E700005A
:103DF3000000000C0C00000E08080808083E000034
:103E03000000003030000038202020202020221E17
:103E13000000000003020272120A0E122277000051
:103E2300000000080E08080808080808083E0000FB
:103E3300000000000000007F9292929292B700006F
:103E4300000000000000003B4642424242E70000FF
:103E5300000000000000003C42424242423C00009D
:103E6300000000000000001B26424242261A0207FF
:103E7300000000000000005864424242645840E0E1
:103E830000000000000000774C040404041F00003D
:103E9300000000000000007C42023C40423E000063
:103EA300000000000008083E080808084830000029
:103EB30000000000000000634242424262DC000056
:103EC30000000000000000772222141408080000FC
:103ED30000000000000000DB91525A2A2424000055
:103EE300000000000000006E24181818247600005B
:103EF30000000000000000E7422424181808080608
:103F0300000000000000007E22100808447E00002C
:103F130000C0202020202020102020202020C000AE
:103F2300101010101010101010101010101010108E
:103F33000003040404040404080404040404030044
:103F4300045A2000000000000000000000000000F0
:103F53000000000000000000002F00000000070028
:103F6300070000147F147F1400242A7F2A120062A2
:103F7300640813230036495522500000050300004E
:103F830000001C224100000041221C000014083ED6
:103F930008140008083E0808000000A0600000089C
:103FA30008080808000060600000002010080402F0
:103FB300003E5149453E0000427F400000426151AE
:103FC3004946002141454B31001814127F10002748
:103FD30045454539003C4A4949300001710905030B
:103FE30000364949493600064949291E000036363C
:103FF300000000005636000000081422410000149F
:10400300141414140000412214080002015109067B
:1040130000324959513E007C1211127C007F4949FC
:104023004936003E41414122007F4141221C007F2D
:1040330049494941007F09090901003E4149497A3B
:10404300007F0808087F0000417F410000204041B5
:104053003F01007F08142241007F40404040007F21
:10406300020C027F007F0408107F003E4141413E65
:10407300007F09090906003E4151215E007F0919AD
:1040830029460046494949310001017F0101003FAA
:104093004040403F001F2040201F003F4038403F2A
:1040A300006314081463000708700807006151498E
:1040B300454300007F41410000552A552A55000021
:1040C30041417F000004020102040040404040409F
:1040D300000001020400002054545478007F484437
:1040E300443800384444442000384444487F00386E
:1040F3005454541800087E0901020018A4A4A47C97
:10410300007F080404780000447D40000040808460
:104113007D00007F102844000000417F4000007CA8
:1041230004180478007C08040478003844444438B4
:1041330000FC242424180018242418FC007C080400
:10414300040800485454542000043F444020003CD9
:104153004040207C001C2040201C003C4030403C60
:10416300004428102844001CA0A0A07C00446454F0
:104173004C44141414141414000000000000000034
:104183000000000000000000000000F80000000034
:10419300000000333000000000100C06100C060075
:1041A300000000000000000040C07840C0784000DC
:1041B300043F04043F040400007088FC083000003E
:1041C300001820FF211E0000F008F000E018000096
:1041D30000211C031E211E0000F00888700000004F
:1041E3001E2123241927211010160E0000000000A1
:1041F3000000000000000000000000E018040200BE
:10420300000000071820400000020418E00000002E
:104213000040201807000000404080F0804040002C
:104223000202010F01020200000000F00000000082
:104233000101011F01010100000000000000000056
:1042430080B07000000000000000000000000000CB
:104253000001010101010101000000000000000054
:1042630000303000000000000000000080601804EF
:10427300006018060100000000E010080810E000CC
:10428300000F102020100F00001010F80000000095
:104293000020203F202000000070080808887000DC
:1042A300003028242221300000300888884830005C
:1042B3000018202020110E000000C02010F800007C
:1042C30000070424243F240000F808888808080015
:1042D3000019212020110E0000E01088881800002A
:1042E300000F112020110E0000380808C8380800FC
:1042F3000000003F0000000000708808088870007C
:10430300001C222121221C0000E010080810E000FC
:104313000000312222110F00000000C0C000000085
:1043230000000030300000000000008000000000AA
:1043330000008060000000000000804020100800A2
:10434300000102040810200040404040404040006B
:104353000404040404040400000810204080000046
:104363000020100804020100007048080808F0004B
:104373000000003036010000C030C828E810E0001B
:104383000718272423140B000000C038E0000000A6
:10439300203C23020227382008F888888870000010
:1043A300203F202020110E00C030080808083800E4
:1043B300071820202010080008F808080810E0005B
:1043C300203F202020100F0008F88888E8081000FC
:1043D300203F20202320180008F88888E8081000D0
:1043E300203F200003000000C03008080838000008
:1043F30007182020221E020008F808000008F80809
:10440300203F210101213F20000808F8080800008F
:104413000020203F2020000000000808F8080800C2
:10442300C08080807F00000008F888C0281808003A
:10443300203F20012638200008F808000000000073
:10444300203F20202020300008F8F800F8F808006A
:10445300203F003F003F200008F830C00008F80864
:10446300203F200007183F00E01008080810E00074
:104473000F10202020100F0008F808080808F0008B
:10448300203F210101010000E01008080810E000AE
:104493000F18242438504F0008F888888888700043
:1044A300203F2000030C30200070880808083800E3
:1044B3000038202121221C00180808F808081800D9
:1044C3000000203F2000000008F808000008F8085A
:1044D300001F202020201F000878880000C838080B
:1044E300000007380E010000F80800F80008F80083
:1044F300033C0700073C030008186880806818081D
:1045030020302C03032C30200838C800C83808009A
:104513000000203F2000000010080808C8380800E9
:104523002038262120201800000000FE020202008D
:104533000000007F40404000000C30C0000000003D
:10454300000000010638C00000020202FE00000065
:10455300004040407F00000000000402020204000B
:104563000000000000000000000000000000000048
:104573008080808080808080000202040000000030
:104583000000000000000000000080808080000028
:104593000019242222223F2008F800808000000016
:1045A300003F112020110E000000008080800000D9
:1045B300000E112020201100000000808088F800E8
:1045C300000E112020103F2000008080808000001A
:1045D300001F222222221300008080F0888888187E
:1045E3000020203F20200000000080808080800089
:1045F300006B94949493600008F80080808000001E
:10460300203F210000203F200080989800000000F8
:104613000020203F20200000000000809898000028
:1046230000C08080807F000008F800008080800048
:10463300203F24022D302000000808F8000000006D
:104643000020203F20200000808080808080800028
:10465300203F20003F20003F8080008080800000BA
:10466300203F210000203F20000080808080000048
:10467300001F202020201F00808000808000000079
:1046830080FFA12020110E000000008080808000A8
:10469300000E112020A0FF80808080008080800099
:1046A30020203F21200001000000808080808000C6
:1046B3000033242424241900008080E0808000003B
:1046C3000000001F20200000808000000080800088
:1046D300001F202020103F208080800000808080E9
:1046E30000010E3008060100808000800080808079
:1046F3000F300C030C300F0000808000808080009E
:104703000020312E0E3120008080800000808080C8
:1047130080818E7018060100008080808080800078
:104723000021302C2221300000000000807C020296
:1047330000000000003F404000000000FF000000B8
:1047430000000000FF0000000002027C8000000067
:104753000040403F00000000000601010202040483
:1047630000000000000000002D002000256400254B
:024773006600DE
:00000001FF
